{
  "contractName": "Betting",
  "abi": [
    {
      "constant": true,
      "inputs": [
        {
          "name": "",
          "type": "uint256"
        }
      ],
      "name": "totalBetHome",
      "outputs": [
        {
          "name": "",
          "type": "uint256"
        }
      ],
      "payable": false,
      "stateMutability": "view",
      "type": "function",
      "signature": "0x137c4734"
    },
    {
      "constant": true,
      "inputs": [],
      "name": "numberOfBets",
      "outputs": [
        {
          "name": "",
          "type": "uint256"
        }
      ],
      "payable": false,
      "stateMutability": "view",
      "type": "function",
      "signature": "0x2ca8c6d3"
    },
    {
      "constant": true,
      "inputs": [
        {
          "name": "",
          "type": "address"
        }
      ],
      "name": "playerInfo",
      "outputs": [
        {
          "name": "amountBet",
          "type": "uint256"
        },
        {
          "name": "matchSelected",
          "type": "uint16"
        },
        {
          "name": "resultSelected",
          "type": "uint16"
        }
      ],
      "payable": false,
      "stateMutability": "view",
      "type": "function",
      "signature": "0x4b114691"
    },
    {
      "constant": true,
      "inputs": [
        {
          "name": "",
          "type": "uint256"
        }
      ],
      "name": "totalBetDraw",
      "outputs": [
        {
          "name": "",
          "type": "uint256"
        }
      ],
      "payable": false,
      "stateMutability": "view",
      "type": "function",
      "signature": "0x72db4d7a"
    },
    {
      "constant": true,
      "inputs": [],
      "name": "owner",
      "outputs": [
        {
          "name": "",
          "type": "address"
        }
      ],
      "payable": false,
      "stateMutability": "view",
      "type": "function",
      "signature": "0x8da5cb5b"
    },
    {
      "constant": true,
      "inputs": [],
      "name": "minimumBet",
      "outputs": [
        {
          "name": "",
          "type": "uint256"
        }
      ],
      "payable": false,
      "stateMutability": "view",
      "type": "function",
      "signature": "0xc38a8afd"
    },
    {
      "constant": true,
      "inputs": [],
      "name": "maxAmountOfBets",
      "outputs": [
        {
          "name": "",
          "type": "uint256"
        }
      ],
      "payable": false,
      "stateMutability": "view",
      "type": "function",
      "signature": "0xe08a96cd"
    },
    {
      "constant": true,
      "inputs": [
        {
          "name": "",
          "type": "uint256"
        }
      ],
      "name": "totalBetAway",
      "outputs": [
        {
          "name": "",
          "type": "uint256"
        }
      ],
      "payable": false,
      "stateMutability": "view",
      "type": "function",
      "signature": "0xe2d28143"
    },
    {
      "constant": true,
      "inputs": [
        {
          "name": "",
          "type": "uint256"
        }
      ],
      "name": "players",
      "outputs": [
        {
          "name": "",
          "type": "address"
        }
      ],
      "payable": false,
      "stateMutability": "view",
      "type": "function",
      "signature": "0xf71d96cb"
    },
    {
      "inputs": [],
      "payable": false,
      "stateMutability": "nonpayable",
      "type": "constructor",
      "signature": "constructor"
    },
    {
      "payable": true,
      "stateMutability": "payable",
      "type": "fallback"
    },
    {
      "constant": false,
      "inputs": [],
      "name": "kill",
      "outputs": [],
      "payable": false,
      "stateMutability": "nonpayable",
      "type": "function",
      "signature": "0x41c0e1b5"
    },
    {
      "constant": true,
      "inputs": [
        {
          "name": "player",
          "type": "address"
        }
      ],
      "name": "checkIfPlayerExists",
      "outputs": [
        {
          "name": "",
          "type": "bool"
        }
      ],
      "payable": false,
      "stateMutability": "view",
      "type": "function",
      "signature": "0x1f897b6e"
    },
    {
      "constant": false,
      "inputs": [
        {
          "name": "_numberMatches",
          "type": "uint8"
        }
      ],
      "name": "initializeMatches",
      "outputs": [],
      "payable": false,
      "stateMutability": "nonpayable",
      "type": "function",
      "signature": "0x5ffacfbe"
    },
    {
      "constant": false,
      "inputs": [
        {
          "name": "_matchSelected",
          "type": "uint16"
        },
        {
          "name": "_resultSelected",
          "type": "uint16"
        }
      ],
      "name": "bet",
      "outputs": [],
      "payable": true,
      "stateMutability": "payable",
      "type": "function",
      "signature": "0x8499e550"
    },
    {
      "constant": false,
      "inputs": [
        {
          "name": "matchFinished",
          "type": "uint16"
        },
        {
          "name": "teamWinner",
          "type": "uint16"
        }
      ],
      "name": "distributePrizes",
      "outputs": [],
      "payable": false,
      "stateMutability": "nonpayable",
      "type": "function",
      "signature": "0xed68789b"
    },
    {
      "constant": true,
      "inputs": [
        {
          "name": "_matchSelected",
          "type": "uint16"
        }
      ],
      "name": "AmountHome",
      "outputs": [
        {
          "name": "",
          "type": "uint256"
        }
      ],
      "payable": false,
      "stateMutability": "view",
      "type": "function",
      "signature": "0x4384fdf6"
    },
    {
      "constant": true,
      "inputs": [
        {
          "name": "_matchSelected",
          "type": "uint16"
        }
      ],
      "name": "AmountAway",
      "outputs": [
        {
          "name": "",
          "type": "uint256"
        }
      ],
      "payable": false,
      "stateMutability": "view",
      "type": "function",
      "signature": "0xa7c183b7"
    },
    {
      "constant": true,
      "inputs": [
        {
          "name": "_matchSelected",
          "type": "uint16"
        }
      ],
      "name": "AmountDraw",
      "outputs": [
        {
          "name": "",
          "type": "uint256"
        }
      ],
      "payable": false,
      "stateMutability": "view",
      "type": "function",
      "signature": "0x54d1ffb8"
    }
  ],
  "bytecode": "0x6080604052600a604051908082528060200260200182016040528015620000355781602001602082028038833980820191505090505b50600190805190602001906200004d9291906200014a565b50600a6040519080825280602002602001820160405280156200007f5781602001602082028038833980820191505090505b5060029080519060200190620000979291906200014a565b50600a604051908082528060200260200182016040528015620000c95781602001602082028038833980820191505090505b5060039080519060200190620000e19291906200014a565b506103e8600555348015620000f557600080fd5b5033600760006101000a81548173ffffffffffffffffffffffffffffffffffffffff021916908373ffffffffffffffffffffffffffffffffffffffff160217905550655af3107a4000600081905550620001c4565b82805482825590600052602060002090810192821562000189579160200282015b82811115620001885782518255916020019190600101906200016b565b5b5090506200019891906200019c565b5090565b620001c191905b80821115620001bd576000816000905550600101620001a3565b5090565b90565b6110a080620001d46000396000f3006080604052600436106100f1576000357c0100000000000000000000000000000000000000000000000000000000900463ffffffff168063137c4734146100f35780631f897b6e146101345780632ca8c6d31461018f57806341c0e1b5146101ba5780634384fdf6146101d15780634b1146911461021657806354d1ffb81461028b5780635ffacfbe146102d057806372db4d7a146103005780638499e550146103415780638da5cb5b14610373578063a7c183b7146103ca578063c38a8afd1461040f578063e08a96cd1461043a578063e2d2814314610465578063ed68789b146104a6578063f71d96cb146104e5575b005b3480156100ff57600080fd5b5061011e60048036038101908080359060200190929190505050610552565b6040518082815260200191505060405180910390f35b34801561014057600080fd5b50610175600480360381019080803573ffffffffffffffffffffffffffffffffffffffff169060200190929190505050610575565b604051808215151515815260200191505060405180910390f35b34801561019b57600080fd5b506101a4610618565b6040518082815260200191505060405180910390f35b3480156101c657600080fd5b506101cf61061e565b005b3480156101dd57600080fd5b50610200600480360381019080803561ffff1690602001909291905050506106b1565b6040518082815260200191505060405180910390f35b34801561022257600080fd5b50610257600480360381019080803573ffffffffffffffffffffffffffffffffffffffff1690602001909291905050506106d8565b604051808481526020018361ffff1661ffff1681526020018261ffff1661ffff168152602001935050505060405180910390f35b34801561029757600080fd5b506102ba600480360381019080803561ffff16906020019092919050505061071e565b6040518082815260200191505060405180910390f35b3480156102dc57600080fd5b506102fe600480360381019080803560ff169060200190929190505050610745565b005b34801561030c57600080fd5b5061032b600480360381019080803590602001909291905050506107c4565b6040518082815260200191505060405180910390f35b610371600480360381019080803561ffff169060200190929190803561ffff1690602001909291905050506107e7565b005b34801561037f57600080fd5b50610388610a1f565b604051808273ffffffffffffffffffffffffffffffffffffffff1673ffffffffffffffffffffffffffffffffffffffff16815260200191505060405180910390f35b3480156103d657600080fd5b506103f9600480360381019080803561ffff169060200190929190505050610a45565b6040518082815260200191505060405180910390f35b34801561041b57600080fd5b50610424610a6c565b6040518082815260200191505060405180910390f35b34801561044657600080fd5b5061044f610a72565b6040518082815260200191505060405180910390f35b34801561047157600080fd5b5061049060048036038101908080359060200190929190505050610a78565b6040518082815260200191505060405180910390f35b3480156104b257600080fd5b506104e3600480360381019080803561ffff169060200190929190803561ffff169060200190929190505050610a9b565b005b3480156104f157600080fd5b5061051060048036038101908080359060200190929190505050610fc0565b604051808273ffffffffffffffffffffffffffffffffffffffff1673ffffffffffffffffffffffffffffffffffffffff16815260200191505060405180910390f35b60018181548110151561056157fe5b906000526020600020016000915090505481565b600080600090505b60068054905081101561060d578273ffffffffffffffffffffffffffffffffffffffff166006828154811015156105b057fe5b9060005260206000200160009054906101000a900473ffffffffffffffffffffffffffffffffffffffff1673ffffffffffffffffffffffffffffffffffffffff1614156106005760019150610612565b808060010191505061057d565b600091505b50919050565b60045481565b600760009054906101000a900473ffffffffffffffffffffffffffffffffffffffff1673ffffffffffffffffffffffffffffffffffffffff163373ffffffffffffffffffffffffffffffffffffffff1614156106af57600760009054906101000a900473ffffffffffffffffffffffffffffffffffffffff1673ffffffffffffffffffffffffffffffffffffffff16ff5b565b600060018261ffff168154811015156106c657fe5b90600052602060002001549050919050565b60086020528060005260406000206000915090508060000154908060010160009054906101000a900461ffff16908060010160029054906101000a900461ffff16905083565b600060038261ffff1681548110151561073357fe5b90600052602060002001549050919050565b60008090505b8160ff168110156107c057600060018281548110151561076757fe5b9060005260206000200181905550600060028281548110151561078657fe5b906000526020600020018190555060006003828154811015156107a557fe5b9060005260206000200181905550808060010191505061074b565b5050565b6003818154811015156107d357fe5b906000526020600020016000915090505481565b6107f033610575565b1515156107fc57600080fd5b600054341015151561080d57600080fd5b34600860003373ffffffffffffffffffffffffffffffffffffffff1673ffffffffffffffffffffffffffffffffffffffff1681526020019081526020016000206000018190555081600860003373ffffffffffffffffffffffffffffffffffffffff1673ffffffffffffffffffffffffffffffffffffffff16815260200190815260200160002060010160006101000a81548161ffff021916908361ffff16021790555080600860003373ffffffffffffffffffffffffffffffffffffffff1673ffffffffffffffffffffffffffffffffffffffff16815260200190815260200160002060010160026101000a81548161ffff021916908361ffff16021790555060063390806001815401808255809150509060018203906000526020600020016000909192909190916101000a81548173ffffffffffffffffffffffffffffffffffffffff021916908373ffffffffffffffffffffffffffffffffffffffff1602179055505060018161ffff1614156109b1573460018361ffff1681548110151561099557fe5b9060005260206000200160008282540192505081905550610a1b565b60028161ffff1614156109ee573460028361ffff168154811015156109d257fe5b9060005260206000200160008282540192505081905550610a1a565b3460038361ffff16815481101515610a0257fe5b90600052602060002001600082825401925050819055505b5b5050565b600760009054906101000a900473ffffffffffffffffffffffffffffffffffffffff1681565b600060028261ffff16815481101515610a5a57fe5b90600052602060002001549050919050565b60005481565b60055481565b600281815481101515610a8757fe5b906000526020600020016000915090505481565b610aa3610ffe565b600080600080600080600080600080600099506000985060009750600093505b600680549050841015610c2c57600684815481101515610adf57fe5b9060005260206000200160009054906101000a900473ffffffffffffffffffffffffffffffffffffffff1694508c61ffff16600860008773ffffffffffffffffffffffffffffffffffffffff1673ffffffffffffffffffffffffffffffffffffffff16815260200190815260200160002060010160009054906101000a900461ffff1661ffff16148015610bca57508b61ffff16600860008773ffffffffffffffffffffffffffffffffffffffff1673ffffffffffffffffffffffffffffffffffffffff16815260200190815260200160002060010160029054906101000a900461ffff1661ffff16145b15610c1f57848b8b6103e881101515610bdf57fe5b602002019073ffffffffffffffffffffffffffffffffffffffff16908173ffffffffffffffffffffffffffffffffffffffff168152505089806001019a50505b8380600101945050610ac3565b60018c61ffff161415610c9d5760038d61ffff16815481101515610c4c57fe5b906000526020600020015460028e61ffff16815481101515610c6a57fe5b906000526020600020015401985060018d61ffff16815481101515610c8b57fe5b90600052602060002001549750610d6f565b60028c61ffff161415610d0e5760038d61ffff16815481101515610cbd57fe5b906000526020600020015460018e61ffff16815481101515610cdb57fe5b906000526020600020015401985060028d61ffff16815481101515610cfc57fe5b90600052602060002001549750610d6e565b60028d61ffff16815481101515610d2157fe5b906000526020600020015460018e61ffff16815481101515610d3f57fe5b906000526020600020015401985060038d61ffff16815481101515610d6057fe5b906000526020600020015497505b5b600092505b89831015610ead57600073ffffffffffffffffffffffffffffffffffffffff168b846103e881101515610da357fe5b602002015173ffffffffffffffffffffffffffffffffffffffff16141515610ddc578a836103e881101515610dd457fe5b602002015196505b600860008873ffffffffffffffffffffffffffffffffffffffff1673ffffffffffffffffffffffffffffffffffffffff168152602001908152602001600020600001549550612710886127108b02811515610e3357fe5b04612710018702811515610e4357fe5b0491508a836103e881101515610e5557fe5b602002015173ffffffffffffffffffffffffffffffffffffffff166108fc839081150290604051600060405180830381858888f19350505050158015610e9f573d6000803e3d6000fd5b508280600101935050610d74565b600860008673ffffffffffffffffffffffffffffffffffffffff1673ffffffffffffffffffffffffffffffffffffffff1681526020019081526020016000206000808201600090556001820160006101000a81549061ffff02191690556001820160026101000a81549061ffff021916905550506000600681610f309190611023565b506000985060009750600090505b600a811015610fb1576000600182815481101515610f5857fe5b90600052602060002001819055506000600282815481101515610f7757fe5b90600052602060002001819055506000600382815481101515610f9657fe5b90600052602060002001819055508080600101915050610f3e565b50505050505050505050505050565b600681815481101515610fcf57fe5b906000526020600020016000915054906101000a900473ffffffffffffffffffffffffffffffffffffffff1681565b617d00604051908101604052806103e890602082028038833980820191505090505090565b81548183558181111561104a57818360005260206000209182019101611049919061104f565b5b505050565b61107191905b8082111561106d576000816000905550600101611055565b5090565b905600a165627a7a72305820b2e6eb2025e2c787e1c54b035f98d7602404460c610ddc97078af03800e4222c0029",
  "source": "pragma solidity ^0.4.2;\n\ncontract Betting {\n   uint256 public minimumBet;\n   //Initialize in 10 matches (It can be improved)\n   uint256[] public totalBetHome = new uint256[](10);\n   uint256[] public totalBetAway = new uint256[](10);\n   uint256[] public totalBetDraw = new uint256[](10);\n   uint256 public numberOfBets;\n   uint256 public maxAmountOfBets = 1000;\n   \n   address[] public players;\n\n   address public owner;\n   \n   struct Player {\n      uint256 amountBet;\n      uint16 matchSelected;\n      uint16 resultSelected;\n   }\n\n   mapping(address => Player) public playerInfo;\n\n   function() public payable {}\n\n   constructor() public {\n       owner = msg.sender;\n      //The minimum Bet defined as 0.0001 ether\n      minimumBet = 100000000000000;\n\n\n   }\n   function kill() public {\n      if(msg.sender == owner) selfdestruct(owner);\n    }\n\n   function checkIfPlayerExists(address player) public view returns(bool){\n      for(uint256 i = 0; i < players.length; i++){\n         if(players[i] == player) return true;\n      }\n      return false;\n   }\n\n   function initializeMatches(uint8 _numberMatches) public{\n      for(uint256 i = 0; i < _numberMatches; i++){\n         totalBetHome[i] = 0;\n         totalBetAway[i] = 0;\n         totalBetDraw[i] = 0;\n      }\n   }\n\n   function bet(uint16 _matchSelected, uint16 _resultSelected) public payable {\n      //Check if the player already exist\n      require(!checkIfPlayerExists(msg.sender));\n      //Check if the value sended by the player is higher than the min value\n      require(msg.value >= minimumBet);\n      \n      //Set the player informations : amount of the bet, match and result selected\n      playerInfo[msg.sender].amountBet = msg.value;\n      playerInfo[msg.sender].matchSelected = _matchSelected;\n      playerInfo[msg.sender].resultSelected = _resultSelected;\n      \n      //Add the address of the player to the players array\n      players.push(msg.sender);\n    \n      //Finally increment the stakes of the team selected with the player bet\n      if ( _resultSelected == 1){\n          totalBetHome[_matchSelected] += msg.value;\n      }\n      else if( _resultSelected == 2){\n          totalBetAway[_matchSelected] += msg.value;\n      }\n      else{\n          totalBetDraw[_matchSelected] += msg.value;\n      }\n   }\n\n   function distributePrizes(uint16 matchFinished, uint16 teamWinner) public {\n      address[1000] memory winners;\n      //Temporary in memory array with fixed size. Let's choose 1000\n      uint256 count = 0; // This is the count for the array of winners\n      uint256 loserBet = 0; //This will take the value of all losers bet\n      uint256 winnerBet = 0; //This will take the value of all winners bet\n      address add;\n      uint256 bet;\n      address playerAddress;\n    \n      //Check who selected the winner team\n      for(uint256 i = 0; i < players.length; i++){\n         playerAddress = players[i];\n         //If the player selected the winner team, we add his address to the winners array\n         if(playerInfo[playerAddress].matchSelected == matchFinished &&\n            playerInfo[playerAddress].resultSelected == teamWinner){\n            winners[count] = playerAddress;\n            count++;\n         }\n       }\n       //We define which bet sum is the Loser one and which one is the winner\n       if ( teamWinner == 1){\n         loserBet = totalBetAway[matchFinished] + totalBetDraw[matchFinished];\n         winnerBet = totalBetHome[matchFinished];\n       }\n       else if ( teamWinner == 2){\n         loserBet = totalBetHome[matchFinished] + totalBetDraw[matchFinished];\n         winnerBet = totalBetAway[matchFinished];\n       }\n       else{\n          loserBet = totalBetHome[matchFinished] + totalBetAway[matchFinished];\n          winnerBet = totalBetDraw[matchFinished];\n       }\n      //We loop through the array of winners, to give ethers to the winners\n      for(uint256 j = 0; j < count; j++){\n          //Check that the address in this fixed array is not empty\n         if(winners[j] != address(0))\n            add = winners[j];\n            bet = playerInfo[add].amountBet;\n            uint256 amountToPlayer = (bet * (10000+(loserBet*10000/winnerBet))) / 10000;\n            winners[j].transfer(amountToPlayer);\n      }\n      //Reset all variables\n      delete playerInfo[playerAddress]; \n      players.length = 0; \n      loserBet = 0; \n      winnerBet = 0;\n      //10 will be the number of matches (To improve this)\n      for(uint256 k = 0; k < 10; k++){\n         totalBetHome[k] = 0;\n         totalBetAway[k] = 0;\n         totalBetDraw[k] = 0;\n      }\n    }\n\n    function AmountHome(uint16 _matchSelected) public view returns(uint256){\n       return totalBetHome[_matchSelected];\n    }\n    function AmountAway(uint16 _matchSelected) public view returns(uint256){\n       return totalBetAway[_matchSelected];\n    }\n    function AmountDraw(uint16 _matchSelected) public view returns(uint256){\n       return totalBetDraw[_matchSelected];\n    }\n}",
  "sourcePath": "/Users/alexbean/Documents/AlexDocuments/Blockchain/decentralized-betting-platform/contracts/Betting.sol",
  "compiler": {
    "name": "solc",
    "version": "0.4.24+commit.e67f0147.Emscripten.clang"
  },
  "schemaVersion": "3.0.6",
  "updatedAt": "2019-06-28T14:57:08.443Z",
  "devdoc": {
    "methods": {}
  },
  "userdoc": {
    "methods": {}
  }
}